{
  "contractName": "Auctions",
  "abi": [
    {
      "constant": true,
      "inputs": [
        {
          "name": "",
          "type": "uint256"
        }
      ],
      "name": "auction",
      "outputs": [
        {
          "name": "name",
          "type": "string"
        },
        {
          "name": "price",
          "type": "uint256"
        },
        {
          "name": "metadata",
          "type": "string"
        },
        {
          "name": "tokenId",
          "type": "uint256"
        },
        {
          "name": "repoAddress",
          "type": "address"
        },
        {
          "name": "owner",
          "type": "address"
        },
        {
          "name": "active",
          "type": "bool"
        },
        {
          "name": "finalized",
          "type": "bool"
        }
      ],
      "payable": false,
      "stateMutability": "view",
      "type": "function"
    },
    {
      "constant": true,
      "inputs": [
        {
          "name": "",
          "type": "address"
        },
        {
          "name": "",
          "type": "uint256"
        }
      ],
      "name": "auctionOwner",
      "outputs": [
        {
          "name": "",
          "type": "uint256"
        }
      ],
      "payable": false,
      "stateMutability": "view",
      "type": "function"
    },
    {
      "payable": false,
      "stateMutability": "nonpayable",
      "type": "fallback"
    },
    {
      "anonymous": false,
      "inputs": [
        {
          "indexed": false,
          "name": "_owner",
          "type": "address"
        },
        {
          "indexed": false,
          "name": "_auctionId",
          "type": "uint256"
        }
      ],
      "name": "AuctionCreated",
      "type": "event"
    },
    {
      "anonymous": false,
      "inputs": [
        {
          "indexed": false,
          "name": "_owner",
          "type": "address"
        },
        {
          "indexed": false,
          "name": "_auctionId",
          "type": "uint256"
        }
      ],
      "name": "AuctionFinalized",
      "type": "event"
    },
    {
      "constant": false,
      "inputs": [
        {
          "name": "_repoAddress",
          "type": "address"
        },
        {
          "name": "_tokenId",
          "type": "uint256"
        },
        {
          "name": "_auctionTitle",
          "type": "string"
        },
        {
          "name": "_metadata",
          "type": "string"
        },
        {
          "name": "_price",
          "type": "uint256"
        }
      ],
      "name": "createAuction",
      "outputs": [
        {
          "name": "",
          "type": "bool"
        }
      ],
      "payable": false,
      "stateMutability": "nonpayable",
      "type": "function"
    },
    {
      "constant": false,
      "inputs": [
        {
          "name": "_auctionId",
          "type": "uint256"
        }
      ],
      "name": "sale",
      "outputs": [],
      "payable": true,
      "stateMutability": "payable",
      "type": "function"
    },
    {
      "constant": false,
      "inputs": [
        {
          "name": "_auctionId",
          "type": "uint256"
        },
        {
          "name": "_to",
          "type": "address"
        }
      ],
      "name": "finalizeAuction",
      "outputs": [],
      "payable": false,
      "stateMutability": "nonpayable",
      "type": "function"
    },
    {
      "constant": true,
      "inputs": [],
      "name": "getCount",
      "outputs": [
        {
          "name": "",
          "type": "uint256"
        }
      ],
      "payable": false,
      "stateMutability": "view",
      "type": "function"
    },
    {
      "constant": true,
      "inputs": [
        {
          "name": "_owner",
          "type": "address"
        }
      ],
      "name": "getAuctionsOf",
      "outputs": [
        {
          "name": "",
          "type": "uint256[]"
        }
      ],
      "payable": false,
      "stateMutability": "view",
      "type": "function"
    },
    {
      "constant": true,
      "inputs": [
        {
          "name": "_owner",
          "type": "address"
        }
      ],
      "name": "getAuctionsCountOfOwner",
      "outputs": [
        {
          "name": "",
          "type": "uint256"
        }
      ],
      "payable": false,
      "stateMutability": "view",
      "type": "function"
    },
    {
      "constant": true,
      "inputs": [
        {
          "name": "_auctionId",
          "type": "uint256"
        }
      ],
      "name": "getAuctionById",
      "outputs": [
        {
          "name": "name",
          "type": "string"
        },
        {
          "name": "price",
          "type": "uint256"
        },
        {
          "name": "metadata",
          "type": "string"
        },
        {
          "name": "tokenId",
          "type": "uint256"
        },
        {
          "name": "repoAddress",
          "type": "address"
        },
        {
          "name": "owner",
          "type": "address"
        },
        {
          "name": "active",
          "type": "bool"
        },
        {
          "name": "finalized",
          "type": "bool"
        }
      ],
      "payable": false,
      "stateMutability": "view",
      "type": "function"
    }
  ],
  "bytecode": "0x608060405234801561001057600080fd5b50611a8a806100206000396000f300608060405260043610610099576000357c0100000000000000000000000000000000000000000000000000000000900463ffffffff1680631200617f146100ab5780631626b7591461024757806318111ada146102945780639472559f14610430578063960327021461052b578063a87d942c1461054b578063b1b61bfa14610576578063c8756cda1461060e578063d56aa5581461066f575b3480156100a557600080fd5b50600080fd5b3480156100b757600080fd5b506100d6600480360381019080803590602001909291905050506106c6565b6040518080602001898152602001806020018881526020018773ffffffffffffffffffffffffffffffffffffffff1673ffffffffffffffffffffffffffffffffffffffff1681526020018673ffffffffffffffffffffffffffffffffffffffff1673ffffffffffffffffffffffffffffffffffffffff168152602001851515151581526020018415151515815260200183810383528b818151815260200191508051906020019080838360005b8381101561019e578082015181840152602081019050610183565b50505050905090810190601f1680156101cb5780820380516001836020036101000a031916815260200191505b50838103825289818151815260200191508051906020019080838360005b838110156102045780820151818401526020810190506101e9565b50505050905090810190601f1680156102315780820380516001836020036101000a031916815260200191505b509a505050505050505050505060405180910390f35b34801561025357600080fd5b5061029260048036038101908080359060200190929190803573ffffffffffffffffffffffffffffffffffffffff1690602001909291905050506108a7565b005b3480156102a057600080fd5b506102bf60048036038101908080359060200190929190505050610c10565b6040518080602001898152602001806020018881526020018773ffffffffffffffffffffffffffffffffffffffff1673ffffffffffffffffffffffffffffffffffffffff1681526020018673ffffffffffffffffffffffffffffffffffffffff1673ffffffffffffffffffffffffffffffffffffffff168152602001851515151581526020018415151515815260200183810383528b818151815260200191508051906020019080838360005b8381101561038757808201518184015260208101905061036c565b50505050905090810190601f1680156103b45780820380516001836020036101000a031916815260200191505b50838103825289818151815260200191508051906020019080838360005b838110156103ed5780820151818401526020810190506103d2565b50505050905090810190601f16801561041a5780820380516001836020036101000a031916815260200191505b509a505050505050505050505060405180910390f35b34801561043c57600080fd5b50610511600480360381019080803573ffffffffffffffffffffffffffffffffffffffff16906020019092919080359060200190929190803590602001908201803590602001908080601f0160208091040260200160405190810160405280939291908181526020018383808284378201915050505050509192919290803590602001908201803590602001908080601f016020809104026020016040519081016040528093929190818152602001838380828437820191505050505050919291929080359060200190929190505050610ed6565b604051808215151515815260200191505060405180910390f35b610549600480360381019080803590602001909291905050506112be565b005b34801561055757600080fd5b50610560611662565b6040518082815260200191505060405180910390f35b34801561058257600080fd5b506105b7600480360381019080803573ffffffffffffffffffffffffffffffffffffffff16906020019092919050505061166e565b6040518080602001828103825283818151815260200191508051906020019060200280838360005b838110156105fa5780820151818401526020810190506105df565b505050509050019250505060405180910390f35b34801561061a57600080fd5b50610659600480360381019080803573ffffffffffffffffffffffffffffffffffffffff1690602001909291908035906020019092919050505061170a565b6040518082815260200191505060405180910390f35b34801561067b57600080fd5b506106b0600480360381019080803573ffffffffffffffffffffffffffffffffffffffff16906020019092919050505061173a565b6040518082815260200191505060405180910390f35b6000818154811015156106d557fe5b9060005260206000209060060201600091509050806000018054600181600116156101000203166002900480601f0160208091040260200160405190810160405280929190818152602001828054600181600116156101000203166002900480156107815780601f1061075657610100808354040283529160200191610781565b820191906000526020600020905b81548152906001019060200180831161076457829003601f168201915b505050505090806001015490806002018054600181600116156101000203166002900480601f0160208091040260200160405190810160405280929190818152602001828054600181600116156101000203166002900480156108255780601f106107fa57610100808354040283529160200191610825565b820191906000526020600020905b81548152906001019060200180831161080857829003601f168201915b5050505050908060030154908060040160009054906101000a900473ffffffffffffffffffffffffffffffffffffffff16908060050160009054906101000a900473ffffffffffffffffffffffffffffffffffffffff16908060050160149054906101000a900460ff16908060050160159054906101000a900460ff16905088565b6108af611943565b6000838154811015156108be57fe5b90600052602060002090600602016101006040519081016040529081600082018054600181600116156101000203166002900480601f0160208091040260200160405190810160405280929190818152602001828054600181600116156101000203166002900480156109725780601f1061094757610100808354040283529160200191610972565b820191906000526020600020905b81548152906001019060200180831161095557829003601f168201915b5050505050815260200160018201548152602001600282018054600181600116156101000203166002900480601f016020809104026020016040519081016040528092919081815260200182805460018160011615610100020316600290048015610a1e5780601f106109f357610100808354040283529160200191610a1e565b820191906000526020600020905b815481529060010190602001808311610a0157829003601f168201915b50505050508152602001600382015481526020016004820160009054906101000a900473ffffffffffffffffffffffffffffffffffffffff1673ffffffffffffffffffffffffffffffffffffffff1673ffffffffffffffffffffffffffffffffffffffff1681526020016005820160009054906101000a900473ffffffffffffffffffffffffffffffffffffffff1673ffffffffffffffffffffffffffffffffffffffff1673ffffffffffffffffffffffffffffffffffffffff1681526020016005820160149054906101000a900460ff161515151581526020016005820160159054906101000a900460ff1615151515815250509050610b29308383608001518460600151611786565b15610c0b5760008084815481101515610b3e57fe5b906000526020600020906006020160050160146101000a81548160ff0219169083151502179055506001600084815481101515610b7757fe5b906000526020600020906006020160050160156101000a81548160ff0219169083151502179055507f357afab190ee87fe0ef1c717f2728d2904d9e415a069d99f4d9382873cb3279d3384604051808373ffffffffffffffffffffffffffffffffffffffff1673ffffffffffffffffffffffffffffffffffffffff1681526020018281526020019250505060405180910390a15b505050565b6060600060606000806000806000610c26611943565b60008a815481101515610c3557fe5b90600052602060002090600602016101006040519081016040529081600082018054600181600116156101000203166002900480601f016020809104026020016040519081016040528092919081815260200182805460018160011615610100020316600290048015610ce95780601f10610cbe57610100808354040283529160200191610ce9565b820191906000526020600020905b815481529060010190602001808311610ccc57829003601f168201915b5050505050815260200160018201548152602001600282018054600181600116156101000203166002900480601f016020809104026020016040519081016040528092919081815260200182805460018160011615610100020316600290048015610d955780601f10610d6a57610100808354040283529160200191610d95565b820191906000526020600020905b815481529060010190602001808311610d7857829003601f168201915b50505050508152602001600382015481526020016004820160009054906101000a900473ffffffffffffffffffffffffffffffffffffffff1673ffffffffffffffffffffffffffffffffffffffff1673ffffffffffffffffffffffffffffffffffffffff1681526020016005820160009054906101000a900473ffffffffffffffffffffffffffffffffffffffff1673ffffffffffffffffffffffffffffffffffffffff1673ffffffffffffffffffffffffffffffffffffffff1681526020016005820160149054906101000a900460ff161515151581526020016005820160159054906101000a900460ff1615151515815250509050806000015181602001518260400151836060015184608001518560a001518660c001518760e001518797508595509850985098509850985098509850985050919395975091939597565b600080610ee1611943565b878760008273ffffffffffffffffffffffffffffffffffffffff16636352211e836040518263ffffffff167c010000000000000000000000000000000000000000000000000000000002815260040180828152602001915050602060405180830381600087803b158015610f5457600080fd5b505af1158015610f68573d6000803e3d6000fd5b505050506040513d6020811015610f7e57600080fd5b810190808051906020019092919050505090503073ffffffffffffffffffffffffffffffffffffffff168173ffffffffffffffffffffffffffffffffffffffff16141515610fcb57600080fd5b600080549050945088846000018190525086846020018181525050878460400181905250898460600181815250508a846080019073ffffffffffffffffffffffffffffffffffffffff16908173ffffffffffffffffffffffffffffffffffffffff1681525050338460a0019073ffffffffffffffffffffffffffffffffffffffff16908173ffffffffffffffffffffffffffffffffffffffff168152505060018460c001901515908115158152505060008460e00190151590811515815250506000849080600181540180825580915050906001820390600052602060002090600602016000909192909190915060008201518160000190805190602001906110d59291906119b9565b506020820151816001015560408201518160020190805190602001906110fc9291906119b9565b506060820151816003015560808201518160040160006101000a81548173ffffffffffffffffffffffffffffffffffffffff021916908373ffffffffffffffffffffffffffffffffffffffff16021790555060a08201518160050160006101000a81548173ffffffffffffffffffffffffffffffffffffffff021916908373ffffffffffffffffffffffffffffffffffffffff16021790555060c08201518160050160146101000a81548160ff02191690831515021790555060e08201518160050160156101000a81548160ff021916908315150217905550505050600160003373ffffffffffffffffffffffffffffffffffffffff1673ffffffffffffffffffffffffffffffffffffffff1681526020019081526020016000208590806001815401808255809150509060018203906000526020600020016000909192909190915055507f3249a06bd478adf780bb7930214ad005e9cfa517d63221c0b77f27199d1a58b33386604051808373ffffffffffffffffffffffffffffffffffffffff1673ffffffffffffffffffffffffffffffffffffffff1681526020018281526020019250505060405180910390a160019550505050505095945050505050565b6112c6611943565b600080600080600080878154811015156112dc57fe5b90600052602060002090600602016101006040519081016040529081600082018054600181600116156101000203166002900480601f0160208091040260200160405190810160405280929190818152602001828054600181600116156101000203166002900480156113905780601f1061136557610100808354040283529160200191611390565b820191906000526020600020905b81548152906001019060200180831161137357829003601f168201915b5050505050815260200160018201548152602001600282018054600181600116156101000203166002900480601f01602080910402602001604051908101604052809291908181526020018280546001816001161561010002031660029004801561143c5780601f106114115761010080835404028352916020019161143c565b820191906000526020600020905b81548152906001019060200180831161141f57829003601f168201915b50505050508152602001600382015481526020016004820160009054906101000a900473ffffffffffffffffffffffffffffffffffffffff1673ffffffffffffffffffffffffffffffffffffffff1673ffffffffffffffffffffffffffffffffffffffff1681526020016005820160009054906101000a900473ffffffffffffffffffffffffffffffffffffffff1673ffffffffffffffffffffffffffffffffffffffff1673ffffffffffffffffffffffffffffffffffffffff1681526020016005820160149054906101000a900460ff161515151581526020016005820160159054906101000a900460ff161515151581525050955073c25a973aa1d89d6a3944e35e7d5db152da7d17e294508560a00151935085602001519250600a8381151561156457fe5b049150818303905082341415156115e3576040517f08c379a00000000000000000000000000000000000000000000000000000000081526004018080602001828103825260138152602001807f74686520616d6f756e742069732077726f6e670000000000000000000000000081525060200191505060405180910390fd5b8473ffffffffffffffffffffffffffffffffffffffff166108fc839081150290604051600060405180830381858888f19350505050508373ffffffffffffffffffffffffffffffffffffffff166108fc829081150290604051600060405180830381858888f193505050505061165987336108a7565b50505050505050565b60008080549050905090565b606080600160008473ffffffffffffffffffffffffffffffffffffffff1673ffffffffffffffffffffffffffffffffffffffff1681526020019081526020016000208054806020026020016040519081016040528092919081815260200182805480156116fa57602002820191906000526020600020905b8154815260200190600101908083116116e6575b5050505050905080915050919050565b60016020528160005260406000208181548110151561172557fe5b90600052602060002001600091509150505481565b6000600160008373ffffffffffffffffffffffffffffffffffffffff1673ffffffffffffffffffffffffffffffffffffffff168152602001908152602001600020805490509050919050565b6000808390508073ffffffffffffffffffffffffffffffffffffffff1663095ea7b386856040518363ffffffff167c0100000000000000000000000000000000000000000000000000000000028152600401808373ffffffffffffffffffffffffffffffffffffffff1673ffffffffffffffffffffffffffffffffffffffff16815260200182815260200192505050600060405180830381600087803b15801561182f57600080fd5b505af1158015611843573d6000803e3d6000fd5b505050508073ffffffffffffffffffffffffffffffffffffffff166323b872dd8787866040518463ffffffff167c0100000000000000000000000000000000000000000000000000000000028152600401808473ffffffffffffffffffffffffffffffffffffffff1673ffffffffffffffffffffffffffffffffffffffff1681526020018373ffffffffffffffffffffffffffffffffffffffff1673ffffffffffffffffffffffffffffffffffffffff1681526020018281526020019350505050600060405180830381600087803b15801561191e57600080fd5b505af1158015611932573d6000803e3d6000fd5b505050506001915050949350505050565b6101006040519081016040528060608152602001600081526020016060815260200160008152602001600073ffffffffffffffffffffffffffffffffffffffff168152602001600073ffffffffffffffffffffffffffffffffffffffff1681526020016000151581526020016000151581525090565b828054600181600116156101000203166002900490600052602060002090601f016020900481019282601f106119fa57805160ff1916838001178555611a28565b82800160010185558215611a28579182015b82811115611a27578251825591602001919060010190611a0c565b5b509050611a359190611a39565b5090565b611a5b91905b80821115611a57576000816000905550600101611a3f565b5090565b905600a165627a7a723058202b69650e62bc9b0f96fa15651b83fdc68dfd8b9dd5c500345668a72c775652d40029",
  "source": "pragma solidity ^0.4.24;\r\n\r\nimport \"./MaketplaceNFT.sol\";\r\n\r\ncontract Auctions{\r\n    // êµ¬ì¡°ì²´ ìƒì„±\r\n    struct Auction{\r\n        string name; // ì œëª©\r\n        uint256 price; // ê°€ê²©\r\n        string metadata; // ifps\r\n        uint256 tokenId; // í† í° ì•„ì´ë””\r\n        address repoAddress; // NFT ì»¨íŠ¸ë™íŠ¸ ì–´ë“œë ˆìŠ¤\r\n        address owner; // ì†Œìœ ì\r\n        bool active; // í™œì„±í™” ì—¬ë¶€\r\n        bool finalized; // íŒë§¤ ì¢…ë¥˜ì—¬ë¶€\r\n    }\r\n    Auction[] public auction;\r\n    // uint[] ì¸ ì´ìœ ëŠ” í•œ íŒë§¤ìê°€ ì—¬ëŸ¬ê°œì˜ ì œí’ˆì„ ì˜¬ë¦´ ìˆ˜ ìˆê¸° ë•Œë¬¸ì— ë°°ì—´ë¡œ ì¤€ë¹„ë¥¼ í•œë‹¤.\r\n    mapping(address => uint[]) public auctionOwner; // ê° ì†Œìœ ì ì–´ë“œë ˆìŠ¤ê°€ ê°€ì§€ê³  ìˆëŠ” tokenIDì˜ ë°°ì—´ì— ëŒ€í•œ ë§¤í•‘ì´ë‹¤.\r\n\r\n    function() public{\r\n        revert();\r\n    }\r\n\r\n    // ì´ë²¤íŠ¸ ë¶€ë¶„\r\n    event AuctionCreated(address _owner, uint _auctionId);\r\n    event AuctionFinalized(address _owner, uint _auctionId);\r\n\r\n    // í•´ë‹¹ ì»¨íŠ¸ë™íŠ¸ê°€ íŠ¹ì • NFT ì†Œìœ ê¶Œì„ ê°€ì§€ê³  ìˆëŠ”ì§€ í™•ì¸í•˜ëŠ” modifierë¥¼ ì •ì˜í•˜ì!\r\n    modifier checkNFT(address _repoAddress, uint256 _tokenId){\r\n        // ì´ í•¨ìˆ˜ëŠ” ì•„ê¹Œ ì •ì˜í•´ë‘” ìŠ¤ë§ˆíŠ¸ ì»¨íŠ¸ë™ì—ì„œ í•´ë‹¹ NFTì˜ ì†Œìœ ìë¥¼ ë°˜í™˜í•˜ëŠ” í•¨ìˆ˜ì´ë‹¤.\r\n        address nftowner = Maket(_repoAddress).ownerOf(_tokenId);\r\n        // NFT ì†Œìœ ìê°€ ì•„ë‹ ì‹œ ì—ëŸ¬ ë°œìƒ!!ğŸ”¥ğŸ”¥\r\n        require(nftowner == address(this));\r\n        _; // modifierì„ ì‚¬ìš©í•˜ëŠ” í•¨ìˆ˜ëŠ” ì—¬ê¸°ì„œ ë¶€í„° ì‹œì‘ëœë‹¤.\r\n    }\r\n\r\n    // ìƒí’ˆ ìƒì„±ë¶€ë¶„\r\n    function createAuction(address _repoAddress, uint256 _tokenId,string _auctionTitle, string _metadata, uint256 _price) public checkNFT(_repoAddress,_tokenId) returns(bool){\r\n        uint auctionId = auction.length;\r\n        Auction memory newAuction;\r\n        newAuction.name = _auctionTitle; // ì œëª©\r\n        newAuction.price = _price; // ê°€ê²©\r\n        newAuction.metadata = _metadata;\r\n        newAuction.tokenId = _tokenId;\r\n        newAuction.repoAddress = _repoAddress;\r\n        newAuction.owner = msg.sender; // ì†Œìœ ìëŠ” ì´ í•¨ìˆ˜ë¥¼ ì‹¤í–‰ì‹œí‚¨ ì£¼ì†Œë¡œ ë¶€í„° ì†Œìœ ìë¼ê³  í•´ì¤€ë‹¤.\r\n        newAuction.active = true; // ì´ì œ ìƒì„±í–ˆìœ¼ë¯€ë¡œ í™œì„±í™” ì—¬ë¶€ëŠ” trueì´ë‹¤.\r\n        newAuction.finalized = false;\r\n\r\n        auction.push(newAuction);\r\n        auctionOwner[msg.sender].push(auctionId);\r\n\r\n        emit AuctionCreated(msg.sender, auctionId);\r\n        return true;\r\n    }\r\n\r\n    // íŒë§¤\r\n    function sale(uint _auctionId) public payable {\r\n        Auction memory saleAuction = auction[_auctionId];\r\n        address  admin = 0xc25a973AA1D89d6A3944E35e7D5Db152da7d17e2;\r\n        address  user = saleAuction.owner;\r\n        uint256 price = saleAuction.price;\r\n        uint256 fee = price/10; // ìˆ˜ìˆ˜ë£ŒëŠ” 10%ë¡œ ì¡ì•˜ë‹¤.\r\n        uint256 amountWithoutFee = price - fee;\r\n\r\n        // íŒë§¤ë˜ëŠ” ìƒí’ˆì˜ ê¸ˆì•¡ê³¼ êµ¬ë§¤ì ë³´ë‚¸ ê¸ˆì•¡ì„ ë¹„êµí•´ ê°™ì§€ ì•Šìœ¼ë©´ ì—ëŸ¬ë¥¼ ë°œìƒì‹œí‚¤ì!\r\n        require(msg.value == price,\"the amount is wrong\");\r\n\r\n        // ê¸ˆì•¡ì„ ë°›ê³  ê´€ë¦¬ì í•œí…Œ ìˆ˜ìˆ˜ë£Œë¥¼ ë³´ë‚´ê³  ë‚¨ì€ ì”ì•¡ì€ ì†Œìœ ìì—ê²Œ ë³´ë‚¸ë‹¤.\r\n\r\n        // ê´€ë¦¬ìì—ê²Œ ìˆ˜ìˆ˜ë£Œ ë„˜ê¸°ê¸°\r\n        admin.send(fee);\r\n        // ì†Œìœ ìì—ê²Œ ì”ì•½ ë³´ë‚´ê¸°\r\n        user.send(amountWithoutFee);\r\n\r\n        // ì´ì œ êµ¬ë§¤ì í•œí…Œ NFTë¥¼ ì „ì†¡í•˜ì~!\r\n        finalizeAuction(_auctionId,msg.sender);\r\n\r\n        \r\n    }\r\n\r\n    // ì†Œìœ ê¶Œ ì´ì „\r\n    function finalizeAuction(uint _auctionId, address _to) public{\r\n        Auction memory myAuction = auction[_auctionId]; // êµ¬ë§¤í•˜ê³  ì‹¶ì€ ìƒí’ˆì˜ ë²ˆí˜¸ë¥¼ ê°€ì ¸ì™€ ìƒì„±í•œë‹¤.\r\n\r\n        // ì„±ê³µì ìœ¼ë¡œ í† í°ì˜ ì „ì†¡ ê¶Œí•œì„ ë¶€ì—¬ í›„ NFTí† í°ì„ ë³´ëƒˆì„ ë•Œë§Œ ìˆ˜í–‰í•˜ëŠ” ê³³ ì´ë‹¤.\r\n        if(approveAndTransfer(address(this), _to, myAuction.repoAddress, myAuction.tokenId)){\r\n            auction[_auctionId].active = false; // íŒë§¤ê°€ ì™„ë£Œ ë˜ì—ˆìœ¼ë‹ˆ í™œì„±í™” X\r\n            auction[_auctionId].finalized = true; // ê·¸ë¦¬ê³  íŒë§¤ ë¶ˆê°€ëŠ¥ìœ¼ë¡œ ë°”ê¾¼ë‹¤.\r\n            emit AuctionFinalized(msg.sender, _auctionId); // ì´ë²¤íŠ¸ ë°œìƒ!\r\n        }\r\n    }\r\n\r\n    function approveAndTransfer(address _from, address _to, address _repoAddress, uint256 _tokenId) internal returns(bool){\r\n        Maket remoteContract = Maket(_repoAddress);\r\n        remoteContract.approve(_to, _tokenId); // í† í° ì „ì†¡ ê¶Œí•œ ë¶€ì—¬\r\n        remoteContract.transferFrom(_from, _to, _tokenId); // í† í° ì „ì†¡!\r\n        return true;\r\n    }\r\n\r\n    // ì˜¥ì…˜ì˜ ì „ì²´ê°¯ìˆ˜ë¥¼ ë°˜í™˜í•˜ëŠ” ê¸°ëŠ¥\r\n    // constant : í•¨ìˆ˜ ë‚´ë¶€ì—ì„œ ìƒíƒœë³€ìˆ˜ ê°’ì„ ë³€ê²½ì‹œì§€ ì•Šê² ë‹¤ëŠ” ì˜ë¯¸ì…ë‹ˆë‹¤ ê·¸ë¦¬ê³  í•´ë‹¹ í•¨ìˆ˜ë¥¼ í˜¸ì¶œí•  ë•ŒëŠ” íŠ¸ëœì­ì…˜ì´ ë°œìƒí•˜ì§€ ì•ŠìŠµë‹ˆë‹¤\r\n    function getCount() public constant returns(uint){\r\n        return auction.length;\r\n    }\r\n\r\n    // í•´ë‹¹ ìƒí’ˆì˜ ì†Œìœ ìì˜ ì˜¥ì…˜ ë¦¬ìŠ¤íŠ¸ë¥¼ ë°˜í™˜í•˜ëŠ” ê¸°ëŠ¥\r\n    function getAuctionsOf(address _owner) public constant returns(uint[]){\r\n        uint[] memory ownedAuctions = auctionOwner[_owner];\r\n        return ownedAuctions;\r\n    }\r\n    // í•´ë‹¹ ìƒí’ˆì˜ ì†Œìœ ìì˜ ì˜¥ì…˜ ë¦¬ìŠ¤íŠ¸ì˜ ê°¯ìˆ˜ë¥¼ ë°˜í™˜í•˜ëŠ” ê¸°ëŠ¥\r\n    function getAuctionsCountOfOwner(address _owner) public constant returns(uint){\r\n        return auctionOwner[_owner].length;\r\n    }\r\n\r\n    // ì˜¥ì…˜ ì•„ì´ë”” ê°’ìœ¼ë¡œ ìƒí’ˆ ì „ì²´ì •ë³´ ê°€ì ¸ì˜¤ëŠ” ê¸°ëŠ¥\r\n    function getAuctionById(uint _auctionId) public constant returns(\r\n                                                                        string name,\r\n                                                                        uint256 price,\r\n                                                                        string metadata,\r\n                                                                        uint256 tokenId,\r\n                                                                        address repoAddress,\r\n                                                                        address owner,\r\n                                                                        bool active,\r\n                                                                        bool finalized){\r\n        Auction memory auc = auction[_auctionId];\r\n        return(\r\n            auc.name,\r\n            auc.price,\r\n            auc.metadata,\r\n            auc.tokenId,\r\n            auc.repoAddress,\r\n            auc.owner,\r\n            auc.active,\r\n            auc.finalized\r\n        );\r\n    }\r\n    \r\n\r\n\r\n\r\n}",
  "sourcePath": "C:\\my study\\Solidity_Study\\backend-nftdapp\\contracts\\Auctions.sol",
  "compiler": {
    "name": "solc",
    "version": "0.4.24+commit.e67f0147.Emscripten.clang"
  },
  "schemaVersion": "3.4.4",
  "updatedAt": "2022-01-06T13:28:04.836Z",
  "networkType": "ethereum",
  "devdoc": {
    "methods": {}
  },
  "userdoc": {
    "methods": {}
  }
}